{"abi":[{"inputs":[{"internalType":"string","name":"_name","type":"string"},{"internalType":"uint256","name":"_public_key","type":"uint256"}],"name":"createCertificate","outputs":[],"stateMutability":"nonpayable","type":"function"},{"inputs":[],"name":"getName","outputs":[{"internalType":"string","name":"","type":"string"}],"stateMutability":"view","type":"function"},{"inputs":[],"name":"getSignedPublicKey","outputs":[{"internalType":"uint256","name":"","type":"uint256"}],"stateMutability":"view","type":"function"},{"inputs":[],"name":"getTimestamp","outputs":[{"internalType":"uint256","name":"","type":"uint256"}],"stateMutability":"view","type":"function"},{"inputs":[{"internalType":"address","name":"","type":"address"}],"name":"nameToCertificate","outputs":[{"internalType":"address","name":"certificate_owner","type":"address"},{"internalType":"string","name":"name","type":"string"},{"internalType":"uint256","name":"public_key","type":"uint256"},{"internalType":"uint256","name":"timestamp","type":"uint256"}],"stateMutability":"view","type":"function"},{"inputs":[{"internalType":"uint256","name":"public_key","type":"uint256"},{"internalType":"uint256","name":"signature","type":"uint256"}],"name":"verifyWithRSA","outputs":[{"internalType":"bool","name":"","type":"bool"}],"stateMutability":"view","type":"function"}],"bytecode":"6080604052601760005560bb600155600760025534801561001f57600080fd5b506107a88061002f6000396000f3fe608060405234801561001057600080fd5b50600436106100625760003560e01c806317d7de7c1461006757806317e2bd4614610085578063188ec356146100a85780639c80a2dc146100cb578063c9e6a7c2146100ee578063fef4558714610103575b600080fd5b61006f61010b565b60405161007c91906103a1565b60405180910390f35b6100986100933660046103b4565b6101af565b60405161007c94939291906103dd565b33600090815260036020819052604090912001545b60405190815260200161007c565b6100de6100d9366004610414565b61026a565b604051901515815260200161007c565b6101016100fc36600461044c565b610294565b005b6100bd61030e565b33600090815260036020526040902060010180546060919061012c90610501565b80601f016020809104026020016040519081016040528092919081815260200182805461015890610501565b80156101a55780601f1061017a576101008083540402835291602001916101a5565b820191906000526020600020905b81548152906001019060200180831161018857829003601f168201915b5050505050905090565b600360205260009081526040902080546001820180546001600160a01b0390921692916101db90610501565b80601f016020809104026020016040519081016040528092919081815260200182805461020790610501565b80156102545780601f1061022957610100808354040283529160200191610254565b820191906000526020600020905b81548152906001019060200180831161023757829003601f168201915b5050505050908060020154908060030154905084565b6000806001546002548461027e9190610635565b6102889190610641565b84149150505b92915050565b6040805160808101825233808252602080830186815283850186905242606085015260009283526003909152929020815181546001600160a01b0319166001600160a01b03909116178155915190919060018201906102f390826106b2565b50604082015160028201556060909101516003909101555050565b3360009081526003602052604081206002015461032a9061032f565b905090565b600080600154600054846103439190610635565b61034d9190610641565b9392505050565b6000815180845260005b8181101561037a5760208185018101518683018201520161035e565b8181111561038c576000602083870101525b50601f01601f19169290920160200192915050565b60208152600061034d6020830184610354565b6000602082840312156103c657600080fd5b81356001600160a01b038116811461034d57600080fd5b6001600160a01b038516815260806020820181905260009061040190830186610354565b6040830194909452506060015292915050565b6000806040838503121561042757600080fd5b50508035926020909101359150565b634e487b7160e01b600052604160045260246000fd5b6000806040838503121561045f57600080fd5b823567ffffffffffffffff8082111561047757600080fd5b818501915085601f83011261048b57600080fd5b81358181111561049d5761049d610436565b604051601f8201601f19908116603f011681019083821181831017156104c5576104c5610436565b816040528281528860208487010111156104de57600080fd5b826020860160208301376000602093820184015298969091013596505050505050565b600181811c9082168061051557607f821691505b60208210810361053557634e487b7160e01b600052602260045260246000fd5b50919050565b634e487b7160e01b600052601160045260246000fd5b600181815b8085111561058c5781600019048211156105725761057261053b565b8085161561057f57918102915b93841c9390800290610556565b509250929050565b6000826105a35750600161028e565b816105b05750600061028e565b81600181146105c657600281146105d0576105ec565b600191505061028e565b60ff8411156105e1576105e161053b565b50506001821b61028e565b5060208310610133831016604e8410600b841016171561060f575081810a61028e565b6106198383610551565b806000190482111561062d5761062d61053b565b029392505050565b600061034d8383610594565b60008261065e57634e487b7160e01b600052601260045260246000fd5b500690565b601f8211156106ad57600081815260208120601f850160051c8101602086101561068a5750805b601f850160051c820191505b818110156106a957828155600101610696565b5050505b505050565b815167ffffffffffffffff8111156106cc576106cc610436565b6106e0816106da8454610501565b84610663565b602080601f83116001811461071557600084156106fd5750858301515b600019600386901b1c1916600185901b1785556106a9565b600085815260208120601f198616915b8281101561074457888601518255948401946001909101908401610725565b50858210156107625787850151600019600388901b60f8161c191681555b5050505050600190811b0190555056fea26469706673582212207c5c24bd9ce8e127b459ef99b0456f94a296105677e9076fc1e5a8882d9830f464736f6c634300080f0033","bytecodeSha1":"bfa95b12ccc3e72690e9df8d5817afca5095234f","compiler":{"evm_version":"istanbul","optimizer":{"enabled":true,"runs":200},"version":"0.8.15+commit.e14f2714"},"contractName":"RSACertification","language":"Solidity","natspec":{"kind":"dev","methods":{},"version":1},"opcodes":"PUSH1 0x80 PUSH1 0x40 MSTORE CALLVALUE DUP1 ISZERO PUSH2 0x10 JUMPI PUSH1 0x0 DUP1 REVERT JUMPDEST POP PUSH1 0x4 CALLDATASIZE LT PUSH2 0x62 JUMPI PUSH1 0x0 CALLDATALOAD PUSH1 0xE0 SHR DUP1 PUSH4 0x17D7DE7C EQ PUSH2 0x67 JUMPI DUP1 PUSH4 0x17E2BD46 EQ PUSH2 0x85 JUMPI DUP1 PUSH4 0x188EC356 EQ PUSH2 0xA8 JUMPI DUP1 PUSH4 0x9C80A2DC EQ PUSH2 0xCB JUMPI DUP1 PUSH4 0xC9E6A7C2 EQ PUSH2 0xEE JUMPI DUP1 PUSH4 0xFEF45587 EQ PUSH2 0x103 JUMPI JUMPDEST PUSH1 0x0 DUP1 REVERT JUMPDEST PUSH2 0x6F PUSH2 0x10B JUMP JUMPDEST PUSH1 0x40 MLOAD PUSH2 0x7C SWAP2 SWAP1 PUSH2 0x3A1 JUMP JUMPDEST PUSH1 0x40 MLOAD DUP1 SWAP2 SUB SWAP1 RETURN JUMPDEST PUSH2 0x98 PUSH2 0x93 CALLDATASIZE PUSH1 0x4 PUSH2 0x3B4 JUMP JUMPDEST PUSH2 0x1AF JUMP JUMPDEST PUSH1 0x40 MLOAD PUSH2 0x7C SWAP5 SWAP4 SWAP3 SWAP2 SWAP1 PUSH2 0x3DD JUMP JUMPDEST CALLER PUSH1 0x0 SWAP1 DUP2 MSTORE PUSH1 0x3 PUSH1 0x20 DUP2 SWAP1 MSTORE PUSH1 0x40 SWAP1 SWAP2 KECCAK256 ADD SLOAD JUMPDEST PUSH1 0x40 MLOAD SWAP1 DUP2 MSTORE PUSH1 0x20 ADD PUSH2 0x7C JUMP JUMPDEST PUSH2 0xDE PUSH2 0xD9 CALLDATASIZE PUSH1 0x4 PUSH2 0x414 JUMP JUMPDEST PUSH2 0x26A JUMP JUMPDEST PUSH1 0x40 MLOAD SWAP1 ISZERO ISZERO DUP2 MSTORE PUSH1 0x20 ADD PUSH2 0x7C JUMP JUMPDEST PUSH2 0x101 PUSH2 0xFC CALLDATASIZE PUSH1 0x4 PUSH2 0x44C JUMP JUMPDEST PUSH2 0x294 JUMP JUMPDEST STOP JUMPDEST PUSH2 0xBD PUSH2 0x30E JUMP JUMPDEST CALLER PUSH1 0x0 SWAP1 DUP2 MSTORE PUSH1 0x3 PUSH1 0x20 MSTORE PUSH1 0x40 SWAP1 KECCAK256 PUSH1 0x1 ADD DUP1 SLOAD PUSH1 0x60 SWAP2 SWAP1 PUSH2 0x12C SWAP1 PUSH2 0x501 JUMP JUMPDEST DUP1 PUSH1 0x1F ADD PUSH1 0x20 DUP1 SWAP2 DIV MUL PUSH1 0x20 ADD PUSH1 0x40 MLOAD SWAP1 DUP2 ADD PUSH1 0x40 MSTORE DUP1 SWAP3 SWAP2 SWAP1 DUP2 DUP2 MSTORE PUSH1 0x20 ADD DUP3 DUP1 SLOAD PUSH2 0x158 SWAP1 PUSH2 0x501 JUMP JUMPDEST DUP1 ISZERO PUSH2 0x1A5 JUMPI DUP1 PUSH1 0x1F LT PUSH2 0x17A JUMPI PUSH2 0x100 DUP1 DUP4 SLOAD DIV MUL DUP4 MSTORE SWAP2 PUSH1 0x20 ADD SWAP2 PUSH2 0x1A5 JUMP JUMPDEST DUP3 ADD SWAP2 SWAP1 PUSH1 0x0 MSTORE PUSH1 0x20 PUSH1 0x0 KECCAK256 SWAP1 JUMPDEST DUP2 SLOAD DUP2 MSTORE SWAP1 PUSH1 0x1 ADD SWAP1 PUSH1 0x20 ADD DUP1 DUP4 GT PUSH2 0x188 JUMPI DUP3 SWAP1 SUB PUSH1 0x1F AND DUP3 ADD SWAP2 JUMPDEST POP POP POP POP POP SWAP1 POP SWAP1 JUMP JUMPDEST PUSH1 0x3 PUSH1 0x20 MSTORE PUSH1 0x0 SWAP1 DUP2 MSTORE PUSH1 0x40 SWAP1 KECCAK256 DUP1 SLOAD PUSH1 0x1 DUP3 ADD DUP1 SLOAD PUSH1 0x1 PUSH1 0x1 PUSH1 0xA0 SHL SUB SWAP1 SWAP3 AND SWAP3 SWAP2 PUSH2 0x1DB SWAP1 PUSH2 0x501 JUMP JUMPDEST DUP1 PUSH1 0x1F ADD PUSH1 0x20 DUP1 SWAP2 DIV MUL PUSH1 0x20 ADD PUSH1 0x40 MLOAD SWAP1 DUP2 ADD PUSH1 0x40 MSTORE DUP1 SWAP3 SWAP2 SWAP1 DUP2 DUP2 MSTORE PUSH1 0x20 ADD DUP3 DUP1 SLOAD PUSH2 0x207 SWAP1 PUSH2 0x501 JUMP JUMPDEST DUP1 ISZERO PUSH2 0x254 JUMPI DUP1 PUSH1 0x1F LT PUSH2 0x229 JUMPI PUSH2 0x100 DUP1 DUP4 SLOAD DIV MUL DUP4 MSTORE SWAP2 PUSH1 0x20 ADD SWAP2 PUSH2 0x254 JUMP JUMPDEST DUP3 ADD SWAP2 SWAP1 PUSH1 0x0 MSTORE PUSH1 0x20 PUSH1 0x0 KECCAK256 SWAP1 JUMPDEST DUP2 SLOAD DUP2 MSTORE SWAP1 PUSH1 0x1 ADD SWAP1 PUSH1 0x20 ADD DUP1 DUP4 GT PUSH2 0x237 JUMPI DUP3 SWAP1 SUB PUSH1 0x1F AND DUP3 ADD SWAP2 JUMPDEST POP POP POP POP POP SWAP1 DUP1 PUSH1 0x2 ADD SLOAD SWAP1 DUP1 PUSH1 0x3 ADD SLOAD SWAP1 POP DUP5 JUMP JUMPDEST PUSH1 0x0 DUP1 PUSH1 0x1 SLOAD PUSH1 0x2 SLOAD DUP5 PUSH2 0x27E SWAP2 SWAP1 PUSH2 0x635 JUMP JUMPDEST PUSH2 0x288 SWAP2 SWAP1 PUSH2 0x641 JUMP JUMPDEST DUP5 EQ SWAP2 POP POP JUMPDEST SWAP3 SWAP2 POP POP JUMP JUMPDEST PUSH1 0x40 DUP1 MLOAD PUSH1 0x80 DUP2 ADD DUP3 MSTORE CALLER DUP1 DUP3 MSTORE PUSH1 0x20 DUP1 DUP4 ADD DUP7 DUP2 MSTORE DUP4 DUP6 ADD DUP7 SWAP1 MSTORE TIMESTAMP PUSH1 0x60 DUP6 ADD MSTORE PUSH1 0x0 SWAP3 DUP4 MSTORE PUSH1 0x3 SWAP1 SWAP2 MSTORE SWAP3 SWAP1 KECCAK256 DUP2 MLOAD DUP2 SLOAD PUSH1 0x1 PUSH1 0x1 PUSH1 0xA0 SHL SUB NOT AND PUSH1 0x1 PUSH1 0x1 PUSH1 0xA0 SHL SUB SWAP1 SWAP2 AND OR DUP2 SSTORE SWAP2 MLOAD SWAP1 SWAP2 SWAP1 PUSH1 0x1 DUP3 ADD SWAP1 PUSH2 0x2F3 SWAP1 DUP3 PUSH2 0x6B2 JUMP JUMPDEST POP PUSH1 0x40 DUP3 ADD MLOAD PUSH1 0x2 DUP3 ADD SSTORE PUSH1 0x60 SWAP1 SWAP2 ADD MLOAD PUSH1 0x3 SWAP1 SWAP2 ADD SSTORE POP POP JUMP JUMPDEST CALLER PUSH1 0x0 SWAP1 DUP2 MSTORE PUSH1 0x3 PUSH1 0x20 MSTORE PUSH1 0x40 DUP2 KECCAK256 PUSH1 0x2 ADD SLOAD PUSH2 0x32A SWAP1 PUSH2 0x32F JUMP JUMPDEST SWAP1 POP SWAP1 JUMP JUMPDEST PUSH1 0x0 DUP1 PUSH1 0x1 SLOAD PUSH1 0x0 SLOAD DUP5 PUSH2 0x343 SWAP2 SWAP1 PUSH2 0x635 JUMP JUMPDEST PUSH2 0x34D SWAP2 SWAP1 PUSH2 0x641 JUMP JUMPDEST SWAP4 SWAP3 POP POP POP JUMP JUMPDEST PUSH1 0x0 DUP2 MLOAD DUP1 DUP5 MSTORE PUSH1 0x0 JUMPDEST DUP2 DUP2 LT ISZERO PUSH2 0x37A JUMPI PUSH1 0x20 DUP2 DUP6 ADD DUP2 ADD MLOAD DUP7 DUP4 ADD DUP3 ADD MSTORE ADD PUSH2 0x35E JUMP JUMPDEST DUP2 DUP2 GT ISZERO PUSH2 0x38C JUMPI PUSH1 0x0 PUSH1 0x20 DUP4 DUP8 ADD ADD MSTORE JUMPDEST POP PUSH1 0x1F ADD PUSH1 0x1F NOT AND SWAP3 SWAP1 SWAP3 ADD PUSH1 0x20 ADD SWAP3 SWAP2 POP POP JUMP JUMPDEST PUSH1 0x20 DUP2 MSTORE PUSH1 0x0 PUSH2 0x34D PUSH1 0x20 DUP4 ADD DUP5 PUSH2 0x354 JUMP JUMPDEST PUSH1 0x0 PUSH1 0x20 DUP3 DUP5 SUB SLT ISZERO PUSH2 0x3C6 JUMPI PUSH1 0x0 DUP1 REVERT JUMPDEST DUP2 CALLDATALOAD PUSH1 0x1 PUSH1 0x1 PUSH1 0xA0 SHL SUB DUP2 AND DUP2 EQ PUSH2 0x34D JUMPI PUSH1 0x0 DUP1 REVERT JUMPDEST PUSH1 0x1 PUSH1 0x1 PUSH1 0xA0 SHL SUB DUP6 AND DUP2 MSTORE PUSH1 0x80 PUSH1 0x20 DUP3 ADD DUP2 SWAP1 MSTORE PUSH1 0x0 SWAP1 PUSH2 0x401 SWAP1 DUP4 ADD DUP7 PUSH2 0x354 JUMP JUMPDEST PUSH1 0x40 DUP4 ADD SWAP5 SWAP1 SWAP5 MSTORE POP PUSH1 0x60 ADD MSTORE SWAP3 SWAP2 POP POP JUMP JUMPDEST PUSH1 0x0 DUP1 PUSH1 0x40 DUP4 DUP6 SUB SLT ISZERO PUSH2 0x427 JUMPI PUSH1 0x0 DUP1 REVERT JUMPDEST POP POP DUP1 CALLDATALOAD SWAP3 PUSH1 0x20 SWAP1 SWAP2 ADD CALLDATALOAD SWAP2 POP JUMP JUMPDEST PUSH4 0x4E487B71 PUSH1 0xE0 SHL PUSH1 0x0 MSTORE PUSH1 0x41 PUSH1 0x4 MSTORE PUSH1 0x24 PUSH1 0x0 REVERT JUMPDEST PUSH1 0x0 DUP1 PUSH1 0x40 DUP4 DUP6 SUB SLT ISZERO PUSH2 0x45F JUMPI PUSH1 0x0 DUP1 REVERT JUMPDEST DUP3 CALLDATALOAD PUSH8 0xFFFFFFFFFFFFFFFF DUP1 DUP3 GT ISZERO PUSH2 0x477 JUMPI PUSH1 0x0 DUP1 REVERT JUMPDEST DUP2 DUP6 ADD SWAP2 POP DUP6 PUSH1 0x1F DUP4 ADD SLT PUSH2 0x48B JUMPI PUSH1 0x0 DUP1 REVERT JUMPDEST DUP2 CALLDATALOAD DUP2 DUP2 GT ISZERO PUSH2 0x49D JUMPI PUSH2 0x49D PUSH2 0x436 JUMP JUMPDEST PUSH1 0x40 MLOAD PUSH1 0x1F DUP3 ADD PUSH1 0x1F NOT SWAP1 DUP2 AND PUSH1 0x3F ADD AND DUP2 ADD SWAP1 DUP4 DUP3 GT DUP2 DUP4 LT OR ISZERO PUSH2 0x4C5 JUMPI PUSH2 0x4C5 PUSH2 0x436 JUMP JUMPDEST DUP2 PUSH1 0x40 MSTORE DUP3 DUP2 MSTORE DUP9 PUSH1 0x20 DUP5 DUP8 ADD ADD GT ISZERO PUSH2 0x4DE JUMPI PUSH1 0x0 DUP1 REVERT JUMPDEST DUP3 PUSH1 0x20 DUP7 ADD PUSH1 0x20 DUP4 ADD CALLDATACOPY PUSH1 0x0 PUSH1 0x20 SWAP4 DUP3 ADD DUP5 ADD MSTORE SWAP9 SWAP7 SWAP1 SWAP2 ADD CALLDATALOAD SWAP7 POP POP POP POP POP POP JUMP JUMPDEST PUSH1 0x1 DUP2 DUP2 SHR SWAP1 DUP3 AND DUP1 PUSH2 0x515 JUMPI PUSH1 0x7F DUP3 AND SWAP2 POP JUMPDEST PUSH1 0x20 DUP3 LT DUP2 SUB PUSH2 0x535 JUMPI PUSH4 0x4E487B71 PUSH1 0xE0 SHL PUSH1 0x0 MSTORE PUSH1 0x22 PUSH1 0x4 MSTORE PUSH1 0x24 PUSH1 0x0 REVERT JUMPDEST POP SWAP2 SWAP1 POP JUMP JUMPDEST PUSH4 0x4E487B71 PUSH1 0xE0 SHL PUSH1 0x0 MSTORE PUSH1 0x11 PUSH1 0x4 MSTORE PUSH1 0x24 PUSH1 0x0 REVERT JUMPDEST PUSH1 0x1 DUP2 DUP2 JUMPDEST DUP1 DUP6 GT ISZERO PUSH2 0x58C JUMPI DUP2 PUSH1 0x0 NOT DIV DUP3 GT ISZERO PUSH2 0x572 JUMPI PUSH2 0x572 PUSH2 0x53B JUMP JUMPDEST DUP1 DUP6 AND ISZERO PUSH2 0x57F JUMPI SWAP2 DUP2 MUL SWAP2 JUMPDEST SWAP4 DUP5 SHR SWAP4 SWAP1 DUP1 MUL SWAP1 PUSH2 0x556 JUMP JUMPDEST POP SWAP3 POP SWAP3 SWAP1 POP JUMP JUMPDEST PUSH1 0x0 DUP3 PUSH2 0x5A3 JUMPI POP PUSH1 0x1 PUSH2 0x28E JUMP JUMPDEST DUP2 PUSH2 0x5B0 JUMPI POP PUSH1 0x0 PUSH2 0x28E JUMP JUMPDEST DUP2 PUSH1 0x1 DUP2 EQ PUSH2 0x5C6 JUMPI PUSH1 0x2 DUP2 EQ PUSH2 0x5D0 JUMPI PUSH2 0x5EC JUMP JUMPDEST PUSH1 0x1 SWAP2 POP POP PUSH2 0x28E JUMP JUMPDEST PUSH1 0xFF DUP5 GT ISZERO PUSH2 0x5E1 JUMPI PUSH2 0x5E1 PUSH2 0x53B JUMP JUMPDEST POP POP PUSH1 0x1 DUP3 SHL PUSH2 0x28E JUMP JUMPDEST POP PUSH1 0x20 DUP4 LT PUSH2 0x133 DUP4 LT AND PUSH1 0x4E DUP5 LT PUSH1 0xB DUP5 LT AND OR ISZERO PUSH2 0x60F JUMPI POP DUP2 DUP2 EXP PUSH2 0x28E JUMP JUMPDEST PUSH2 0x619 DUP4 DUP4 PUSH2 0x551 JUMP JUMPDEST DUP1 PUSH1 0x0 NOT DIV DUP3 GT ISZERO PUSH2 0x62D JUMPI PUSH2 0x62D PUSH2 0x53B JUMP JUMPDEST MUL SWAP4 SWAP3 POP POP POP JUMP JUMPDEST PUSH1 0x0 PUSH2 0x34D DUP4 DUP4 PUSH2 0x594 JUMP JUMPDEST PUSH1 0x0 DUP3 PUSH2 0x65E JUMPI PUSH4 0x4E487B71 PUSH1 0xE0 SHL PUSH1 0x0 MSTORE PUSH1 0x12 PUSH1 0x4 MSTORE PUSH1 0x24 PUSH1 0x0 REVERT JUMPDEST POP MOD SWAP1 JUMP JUMPDEST PUSH1 0x1F DUP3 GT ISZERO PUSH2 0x6AD JUMPI PUSH1 0x0 DUP2 DUP2 MSTORE PUSH1 0x20 DUP2 KECCAK256 PUSH1 0x1F DUP6 ADD PUSH1 0x5 SHR DUP2 ADD PUSH1 0x20 DUP7 LT ISZERO PUSH2 0x68A JUMPI POP DUP1 JUMPDEST PUSH1 0x1F DUP6 ADD PUSH1 0x5 SHR DUP3 ADD SWAP2 POP JUMPDEST DUP2 DUP2 LT ISZERO PUSH2 0x6A9 JUMPI DUP3 DUP2 SSTORE PUSH1 0x1 ADD PUSH2 0x696 JUMP JUMPDEST POP POP POP JUMPDEST POP POP POP JUMP JUMPDEST DUP2 MLOAD PUSH8 0xFFFFFFFFFFFFFFFF DUP2 GT ISZERO PUSH2 0x6CC JUMPI PUSH2 0x6CC PUSH2 0x436 JUMP JUMPDEST PUSH2 0x6E0 DUP2 PUSH2 0x6DA DUP5 SLOAD PUSH2 0x501 JUMP JUMPDEST DUP5 PUSH2 0x663 JUMP JUMPDEST PUSH1 0x20 DUP1 PUSH1 0x1F DUP4 GT PUSH1 0x1 DUP2 EQ PUSH2 0x715 JUMPI PUSH1 0x0 DUP5 ISZERO PUSH2 0x6FD JUMPI POP DUP6 DUP4 ADD MLOAD JUMPDEST PUSH1 0x0 NOT PUSH1 0x3 DUP7 SWAP1 SHL SHR NOT AND PUSH1 0x1 DUP6 SWAP1 SHL OR DUP6 SSTORE PUSH2 0x6A9 JUMP JUMPDEST PUSH1 0x0 DUP6 DUP2 MSTORE PUSH1 0x20 DUP2 KECCAK256 PUSH1 0x1F NOT DUP7 AND SWAP2 JUMPDEST DUP3 DUP2 LT ISZERO PUSH2 0x744 JUMPI DUP9 DUP7 ADD MLOAD DUP3 SSTORE SWAP5 DUP5 ADD SWAP5 PUSH1 0x1 SWAP1 SWAP2 ADD SWAP1 DUP5 ADD PUSH2 0x725 JUMP JUMPDEST POP DUP6 DUP3 LT ISZERO PUSH2 0x762 JUMPI DUP8 DUP6 ADD MLOAD PUSH1 0x0 NOT PUSH1 0x3 DUP9 SWAP1 SHL PUSH1 0xF8 AND SHR NOT AND DUP2 SSTORE JUMPDEST POP POP POP POP POP PUSH1 0x1 SWAP1 DUP2 SHL ADD SWAP1 SSTORE POP JUMP INVALID LOG2 PUSH5 0x6970667358 0x22 SLT KECCAK256 PUSH29 0x5C24BD9CE8E127B459EF99B0456F94A296105677E9076FC1E5A8882D98 ADDRESS DELEGATECALL PUSH5 0x736F6C6343 STOP ADDMOD 0xF STOP CALLER ","sha1":"be5b498ba7eb21f20c31bd8c279cd36117556b23","source":"// SPDX-License-Identifier: MIT\n\npragma solidity >=0.6.0 <0.9.0;\n\ncontract RSACertification {\n    // RSA key pair\n    uint256 d = 23;\n    uint256 n = 187;\n    uint256 e = 7;\n\n    struct Certificate {\n        address certificate_owner;\n        string name;\n        uint256 public_key;\n        uint256 timestamp;\n    }\n\n    mapping(address => Certificate) public nameToCertificate;\n\n    // create a certificate\n    function createCertificate(string memory _name, uint256 _public_key)\n        public\n    {\n        nameToCertificate[msg.sender] = Certificate(\n            msg.sender,\n            _name,\n            _public_key,\n            block.timestamp\n        );\n    }\n\n    // signature using RSA\n    function signWithRSA(uint256 public_key) private view returns (uint256) {\n        uint256 signature = public_key**d % n;\n        return signature;\n    }\n\n    // verification using RSA\n    function verifyWithRSA(uint256 public_key, uint256 signature)\n        public\n        view\n        returns (bool)\n    {\n        uint256 result = signature**e % n;\n        return result == public_key;\n    }\n\n    function getName() public view returns (string memory) {\n        return nameToCertificate[msg.sender].name;\n    }\n\n    function getSignedPublicKey() public view returns (uint256) {\n        return signWithRSA(nameToCertificate[msg.sender].public_key);\n    }\n\n    function getTimestamp() public view returns (uint256) {\n        return nameToCertificate[msg.sender].timestamp;\n    }\n}\n","sourcePath":"contracts/RSACertification.sol","type":"contract","deployment":{"address":"0xD9A3C71e2bEe115392998a4093eb6963a0a8617f","chainid":"4","blockHeight":11123521}}