{
  "abi": [
    {
      "inputs": [
        {
          "internalType": "string",
          "name": "_name",
          "type": "string"
        },
        {
          "internalType": "bytes32",
          "name": "_public_key_part1",
          "type": "bytes32"
        },
        {
          "internalType": "bytes32",
          "name": "_public_key_part2",
          "type": "bytes32"
        },
        {
          "internalType": "bytes32",
          "name": "_public_key_part3",
          "type": "bytes32"
        },
        {
          "internalType": "bytes32",
          "name": "_public_key_part4",
          "type": "bytes32"
        },
        {
          "internalType": "bytes32",
          "name": "_public_key_part5",
          "type": "bytes32"
        },
        {
          "internalType": "bytes32",
          "name": "_public_key_part6",
          "type": "bytes32"
        },
        {
          "internalType": "bytes32",
          "name": "_public_key_part7",
          "type": "bytes32"
        },
        {
          "internalType": "bytes32",
          "name": "_public_key_part8",
          "type": "bytes32"
        },
        {
          "internalType": "bytes32",
          "name": "_public_key_part9",
          "type": "bytes32"
        }
      ],
      "name": "createCertificate",
      "outputs": [],
      "stateMutability": "nonpayable",
      "type": "function"
    },
    {
      "inputs": [],
      "name": "getName",
      "outputs": [
        {
          "internalType": "string",
          "name": "",
          "type": "string"
        }
      ],
      "stateMutability": "view",
      "type": "function"
    },
    {
      "inputs": [],
      "name": "getPublicKey",
      "outputs": [
        {
          "internalType": "bytes32[]",
          "name": "",
          "type": "bytes32[]"
        }
      ],
      "stateMutability": "view",
      "type": "function"
    },
    {
      "inputs": [],
      "name": "getTimestamp",
      "outputs": [
        {
          "internalType": "uint256",
          "name": "",
          "type": "uint256"
        }
      ],
      "stateMutability": "view",
      "type": "function"
    },
    {
      "inputs": [
        {
          "internalType": "address",
          "name": "",
          "type": "address"
        }
      ],
      "name": "nameToCertificate",
      "outputs": [
        {
          "internalType": "address",
          "name": "certificate_owner",
          "type": "address"
        },
        {
          "internalType": "string",
          "name": "name",
          "type": "string"
        },
        {
          "internalType": "bytes32",
          "name": "public_key_part1",
          "type": "bytes32"
        },
        {
          "internalType": "bytes32",
          "name": "public_key_part2",
          "type": "bytes32"
        },
        {
          "internalType": "bytes32",
          "name": "public_key_part3",
          "type": "bytes32"
        },
        {
          "internalType": "bytes32",
          "name": "public_key_part4",
          "type": "bytes32"
        },
        {
          "internalType": "bytes32",
          "name": "public_key_part5",
          "type": "bytes32"
        },
        {
          "internalType": "bytes32",
          "name": "public_key_part6",
          "type": "bytes32"
        },
        {
          "internalType": "bytes32",
          "name": "public_key_part7",
          "type": "bytes32"
        },
        {
          "internalType": "bytes32",
          "name": "public_key_part8",
          "type": "bytes32"
        },
        {
          "internalType": "bytes32",
          "name": "public_key_part9",
          "type": "bytes32"
        },
        {
          "internalType": "uint256",
          "name": "timestamp",
          "type": "uint256"
        }
      ],
      "stateMutability": "view",
      "type": "function"
    }
  ],
  "bytecode": "608060405234801561001057600080fd5b50610a10806100206000396000f3fe608060405234801561001057600080fd5b50600436106100575760003560e01c80630e7097591461005c57806317d7de7c1461007157806317e2bd461461008f578063188ec356146100ba5780632e334452146100db575b600080fd5b61006f61006a36600461063c565b6100f0565b005b610079610202565b604051610086919061077e565b60405180910390f35b6100a261009d366004610798565b6102a6565b6040516100869c9b9a999897969594939291906107c1565b336000908152602081905260409020600b0154604051908152602001610086565b6100e3610391565b6040516100869190610837565b60408051610180810182523380825260208083018e81528385018e9052606084018d9052608084018c905260a084018b905260c084018a905260e0840189905261010084018890526101208401879052610140840186905242610160850152600092835290829052929020815181546001600160a01b0319166001600160a01b039091161781559151909190600182019061018b9082610904565b5060408201516002820155606082015160038201556080820151600482015560a0820151600582015560c0820151600682015560e0820151600782015561010082015160088201556101208201516009820155610140820151600a82015561016090910151600b9091015550505050505050505050565b3360009081526020819052604090206001018054606091906102239061087b565b80601f016020809104026020016040519081016040528092919081815260200182805461024f9061087b565b801561029c5780601f106102715761010080835404028352916020019161029c565b820191906000526020600020905b81548152906001019060200180831161027f57829003601f168201915b5050505050905090565b600060208190529081526040902080546001820180546001600160a01b0390921692916102d29061087b565b80601f01602080910402602001604051908101604052809291908181526020018280546102fe9061087b565b801561034b5780601f106103205761010080835404028352916020019161034b565b820191906000526020600020905b81548152906001019060200180831161032e57829003601f168201915b50505050509080600201549080600301549080600401549080600501549080600601549080600701549080600801549080600901549080600a01549080600b015490508c565b60408051600980825261014082019092526060916000919060208201610120803683375050336000908152602081905260408120600201548351939450928492506103de576103de6109c4565b602002602001018181525050600080336001600160a01b03166001600160a01b031681526020019081526020016000206003015481600181518110610425576104256109c4565b602002602001018181525050600080336001600160a01b03166001600160a01b03168152602001908152602001600020600401548160028151811061046c5761046c6109c4565b602002602001018181525050600080336001600160a01b03166001600160a01b0316815260200190815260200160002060050154816003815181106104b3576104b36109c4565b602002602001018181525050600080336001600160a01b03166001600160a01b0316815260200190815260200160002060060154816004815181106104fa576104fa6109c4565b602002602001018181525050600080336001600160a01b03166001600160a01b031681526020019081526020016000206007015481600581518110610541576105416109c4565b602002602001018181525050600080336001600160a01b03166001600160a01b031681526020019081526020016000206008015481600681518110610588576105886109c4565b602002602001018181525050600080336001600160a01b03166001600160a01b0316815260200190815260200160002060090154816007815181106105cf576105cf6109c4565b602002602001018181525050600080336001600160a01b03166001600160a01b03168152602001908152602001600020600a015481600881518110610616576106166109c4565b6020908102919091010152919050565b634e487b7160e01b600052604160045260246000fd5b6000806000806000806000806000806101408b8d03121561065c57600080fd5b67ffffffffffffffff808c35111561067357600080fd5b8b358c018d601f82011261068657600080fd5b818135111561069757610697610626565b6040518135601f01601f19908116603f011681019083821181831017156106c0576106c0610626565b81604052823581528f6020843585010111156106db57600080fd5b823560208401602083013760006020933582018401529f918e01359e505060408d01359c60608101359c5060808101359b5060a08101359a5060c0810135995060e081013598506101008101359750610120013595509350505050565b6000815180845260005b8181101561075e57602081850181015186830182015201610742565b506000602082860101526020601f19601f83011685010191505092915050565b6020815260006107916020830184610738565b9392505050565b6000602082840312156107aa57600080fd5b81356001600160a01b038116811461079157600080fd5b6001600160a01b038d168152610180602082018190526000906107e68382018f610738565b604084019d909d5250506060810199909952608089019790975260a088019590955260c087019390935260e08601919091526101008501526101208401526101408301526101609091015292915050565b6020808252825182820181905260009190848201906040850190845b8181101561086f57835183529284019291840191600101610853565b50909695505050505050565b600181811c9082168061088f57607f821691505b6020821081036108af57634e487b7160e01b600052602260045260246000fd5b50919050565b601f8211156108ff57600081815260208120601f850160051c810160208610156108dc5750805b601f850160051c820191505b818110156108fb578281556001016108e8565b5050505b505050565b815167ffffffffffffffff81111561091e5761091e610626565b6109328161092c845461087b565b846108b5565b602080601f831160018114610967576000841561094f5750858301515b600019600386901b1c1916600185901b1785556108fb565b600085815260208120601f198616915b8281101561099657888601518255948401946001909101908401610977565b50858210156109b45787850151600019600388901b60f8161c191681555b5050505050600190811b01905550565b634e487b7160e01b600052603260045260246000fdfea2646970667358221220106a9daed352f8889ac2a1122818e7a3983fe1a1c254529df60e3e1b82118f7164736f6c63430008100033",
  "bytecodeSha1": "d3b6c83849e7e0fd20374b5593ea26d37691d175",
  "compiler": {
    "evm_version": "istanbul",
    "optimizer": {
      "enabled": true,
      "runs": 200
    },
    "version": "0.8.16+commit.07a7930e"
  },
  "contractName": "RSACertification",
  "language": "Solidity",
  "natspec": {
    "kind": "dev",
    "methods": {},
    "version": 1
  },
  "opcodes": "PUSH1 0x80 PUSH1 0x40 MSTORE CALLVALUE DUP1 ISZERO PUSH2 0x10 JUMPI PUSH1 0x0 DUP1 REVERT JUMPDEST POP PUSH1 0x4 CALLDATASIZE LT PUSH2 0x57 JUMPI PUSH1 0x0 CALLDATALOAD PUSH1 0xE0 SHR DUP1 PUSH4 0xE709759 EQ PUSH2 0x5C JUMPI DUP1 PUSH4 0x17D7DE7C EQ PUSH2 0x71 JUMPI DUP1 PUSH4 0x17E2BD46 EQ PUSH2 0x8F JUMPI DUP1 PUSH4 0x188EC356 EQ PUSH2 0xBA JUMPI DUP1 PUSH4 0x2E334452 EQ PUSH2 0xDB JUMPI JUMPDEST PUSH1 0x0 DUP1 REVERT JUMPDEST PUSH2 0x6F PUSH2 0x6A CALLDATASIZE PUSH1 0x4 PUSH2 0x63C JUMP JUMPDEST PUSH2 0xF0 JUMP JUMPDEST STOP JUMPDEST PUSH2 0x79 PUSH2 0x202 JUMP JUMPDEST PUSH1 0x40 MLOAD PUSH2 0x86 SWAP2 SWAP1 PUSH2 0x77E JUMP JUMPDEST PUSH1 0x40 MLOAD DUP1 SWAP2 SUB SWAP1 RETURN JUMPDEST PUSH2 0xA2 PUSH2 0x9D CALLDATASIZE PUSH1 0x4 PUSH2 0x798 JUMP JUMPDEST PUSH2 0x2A6 JUMP JUMPDEST PUSH1 0x40 MLOAD PUSH2 0x86 SWAP13 SWAP12 SWAP11 SWAP10 SWAP9 SWAP8 SWAP7 SWAP6 SWAP5 SWAP4 SWAP3 SWAP2 SWAP1 PUSH2 0x7C1 JUMP JUMPDEST CALLER PUSH1 0x0 SWAP1 DUP2 MSTORE PUSH1 0x20 DUP2 SWAP1 MSTORE PUSH1 0x40 SWAP1 KECCAK256 PUSH1 0xB ADD SLOAD PUSH1 0x40 MLOAD SWAP1 DUP2 MSTORE PUSH1 0x20 ADD PUSH2 0x86 JUMP JUMPDEST PUSH2 0xE3 PUSH2 0x391 JUMP JUMPDEST PUSH1 0x40 MLOAD PUSH2 0x86 SWAP2 SWAP1 PUSH2 0x837 JUMP JUMPDEST PUSH1 0x40 DUP1 MLOAD PUSH2 0x180 DUP2 ADD DUP3 MSTORE CALLER DUP1 DUP3 MSTORE PUSH1 0x20 DUP1 DUP4 ADD DUP15 DUP2 MSTORE DUP4 DUP6 ADD DUP15 SWAP1 MSTORE PUSH1 0x60 DUP5 ADD DUP14 SWAP1 MSTORE PUSH1 0x80 DUP5 ADD DUP13 SWAP1 MSTORE PUSH1 0xA0 DUP5 ADD DUP12 SWAP1 MSTORE PUSH1 0xC0 DUP5 ADD DUP11 SWAP1 MSTORE PUSH1 0xE0 DUP5 ADD DUP10 SWAP1 MSTORE PUSH2 0x100 DUP5 ADD DUP9 SWAP1 MSTORE PUSH2 0x120 DUP5 ADD DUP8 SWAP1 MSTORE PUSH2 0x140 DUP5 ADD DUP7 SWAP1 MSTORE TIMESTAMP PUSH2 0x160 DUP6 ADD MSTORE PUSH1 0x0 SWAP3 DUP4 MSTORE SWAP1 DUP3 SWAP1 MSTORE SWAP3 SWAP1 KECCAK256 DUP2 MLOAD DUP2 SLOAD PUSH1 0x1 PUSH1 0x1 PUSH1 0xA0 SHL SUB NOT AND PUSH1 0x1 PUSH1 0x1 PUSH1 0xA0 SHL SUB SWAP1 SWAP2 AND OR DUP2 SSTORE SWAP2 MLOAD SWAP1 SWAP2 SWAP1 PUSH1 0x1 DUP3 ADD SWAP1 PUSH2 0x18B SWAP1 DUP3 PUSH2 0x904 JUMP JUMPDEST POP PUSH1 0x40 DUP3 ADD MLOAD PUSH1 0x2 DUP3 ADD SSTORE PUSH1 0x60 DUP3 ADD MLOAD PUSH1 0x3 DUP3 ADD SSTORE PUSH1 0x80 DUP3 ADD MLOAD PUSH1 0x4 DUP3 ADD SSTORE PUSH1 0xA0 DUP3 ADD MLOAD PUSH1 0x5 DUP3 ADD SSTORE PUSH1 0xC0 DUP3 ADD MLOAD PUSH1 0x6 DUP3 ADD SSTORE PUSH1 0xE0 DUP3 ADD MLOAD PUSH1 0x7 DUP3 ADD SSTORE PUSH2 0x100 DUP3 ADD MLOAD PUSH1 0x8 DUP3 ADD SSTORE PUSH2 0x120 DUP3 ADD MLOAD PUSH1 0x9 DUP3 ADD SSTORE PUSH2 0x140 DUP3 ADD MLOAD PUSH1 0xA DUP3 ADD SSTORE PUSH2 0x160 SWAP1 SWAP2 ADD MLOAD PUSH1 0xB SWAP1 SWAP2 ADD SSTORE POP POP POP POP POP POP POP POP POP POP JUMP JUMPDEST CALLER PUSH1 0x0 SWAP1 DUP2 MSTORE PUSH1 0x20 DUP2 SWAP1 MSTORE PUSH1 0x40 SWAP1 KECCAK256 PUSH1 0x1 ADD DUP1 SLOAD PUSH1 0x60 SWAP2 SWAP1 PUSH2 0x223 SWAP1 PUSH2 0x87B JUMP JUMPDEST DUP1 PUSH1 0x1F ADD PUSH1 0x20 DUP1 SWAP2 DIV MUL PUSH1 0x20 ADD PUSH1 0x40 MLOAD SWAP1 DUP2 ADD PUSH1 0x40 MSTORE DUP1 SWAP3 SWAP2 SWAP1 DUP2 DUP2 MSTORE PUSH1 0x20 ADD DUP3 DUP1 SLOAD PUSH2 0x24F SWAP1 PUSH2 0x87B JUMP JUMPDEST DUP1 ISZERO PUSH2 0x29C JUMPI DUP1 PUSH1 0x1F LT PUSH2 0x271 JUMPI PUSH2 0x100 DUP1 DUP4 SLOAD DIV MUL DUP4 MSTORE SWAP2 PUSH1 0x20 ADD SWAP2 PUSH2 0x29C JUMP JUMPDEST DUP3 ADD SWAP2 SWAP1 PUSH1 0x0 MSTORE PUSH1 0x20 PUSH1 0x0 KECCAK256 SWAP1 JUMPDEST DUP2 SLOAD DUP2 MSTORE SWAP1 PUSH1 0x1 ADD SWAP1 PUSH1 0x20 ADD DUP1 DUP4 GT PUSH2 0x27F JUMPI DUP3 SWAP1 SUB PUSH1 0x1F AND DUP3 ADD SWAP2 JUMPDEST POP POP POP POP POP SWAP1 POP SWAP1 JUMP JUMPDEST PUSH1 0x0 PUSH1 0x20 DUP2 SWAP1 MSTORE SWAP1 DUP2 MSTORE PUSH1 0x40 SWAP1 KECCAK256 DUP1 SLOAD PUSH1 0x1 DUP3 ADD DUP1 SLOAD PUSH1 0x1 PUSH1 0x1 PUSH1 0xA0 SHL SUB SWAP1 SWAP3 AND SWAP3 SWAP2 PUSH2 0x2D2 SWAP1 PUSH2 0x87B JUMP JUMPDEST DUP1 PUSH1 0x1F ADD PUSH1 0x20 DUP1 SWAP2 DIV MUL PUSH1 0x20 ADD PUSH1 0x40 MLOAD SWAP1 DUP2 ADD PUSH1 0x40 MSTORE DUP1 SWAP3 SWAP2 SWAP1 DUP2 DUP2 MSTORE PUSH1 0x20 ADD DUP3 DUP1 SLOAD PUSH2 0x2FE SWAP1 PUSH2 0x87B JUMP JUMPDEST DUP1 ISZERO PUSH2 0x34B JUMPI DUP1 PUSH1 0x1F LT PUSH2 0x320 JUMPI PUSH2 0x100 DUP1 DUP4 SLOAD DIV MUL DUP4 MSTORE SWAP2 PUSH1 0x20 ADD SWAP2 PUSH2 0x34B JUMP JUMPDEST DUP3 ADD SWAP2 SWAP1 PUSH1 0x0 MSTORE PUSH1 0x20 PUSH1 0x0 KECCAK256 SWAP1 JUMPDEST DUP2 SLOAD DUP2 MSTORE SWAP1 PUSH1 0x1 ADD SWAP1 PUSH1 0x20 ADD DUP1 DUP4 GT PUSH2 0x32E JUMPI DUP3 SWAP1 SUB PUSH1 0x1F AND DUP3 ADD SWAP2 JUMPDEST POP POP POP POP POP SWAP1 DUP1 PUSH1 0x2 ADD SLOAD SWAP1 DUP1 PUSH1 0x3 ADD SLOAD SWAP1 DUP1 PUSH1 0x4 ADD SLOAD SWAP1 DUP1 PUSH1 0x5 ADD SLOAD SWAP1 DUP1 PUSH1 0x6 ADD SLOAD SWAP1 DUP1 PUSH1 0x7 ADD SLOAD SWAP1 DUP1 PUSH1 0x8 ADD SLOAD SWAP1 DUP1 PUSH1 0x9 ADD SLOAD SWAP1 DUP1 PUSH1 0xA ADD SLOAD SWAP1 DUP1 PUSH1 0xB ADD SLOAD SWAP1 POP DUP13 JUMP JUMPDEST PUSH1 0x40 DUP1 MLOAD PUSH1 0x9 DUP1 DUP3 MSTORE PUSH2 0x140 DUP3 ADD SWAP1 SWAP3 MSTORE PUSH1 0x60 SWAP2 PUSH1 0x0 SWAP2 SWAP1 PUSH1 0x20 DUP3 ADD PUSH2 0x120 DUP1 CALLDATASIZE DUP4 CALLDATACOPY POP POP CALLER PUSH1 0x0 SWAP1 DUP2 MSTORE PUSH1 0x20 DUP2 SWAP1 MSTORE PUSH1 0x40 DUP2 KECCAK256 PUSH1 0x2 ADD SLOAD DUP4 MLOAD SWAP4 SWAP5 POP SWAP3 DUP5 SWAP3 POP PUSH2 0x3DE JUMPI PUSH2 0x3DE PUSH2 0x9C4 JUMP JUMPDEST PUSH1 0x20 MUL PUSH1 0x20 ADD ADD DUP2 DUP2 MSTORE POP POP PUSH1 0x0 DUP1 CALLER PUSH1 0x1 PUSH1 0x1 PUSH1 0xA0 SHL SUB AND PUSH1 0x1 PUSH1 0x1 PUSH1 0xA0 SHL SUB AND DUP2 MSTORE PUSH1 0x20 ADD SWAP1 DUP2 MSTORE PUSH1 0x20 ADD PUSH1 0x0 KECCAK256 PUSH1 0x3 ADD SLOAD DUP2 PUSH1 0x1 DUP2 MLOAD DUP2 LT PUSH2 0x425 JUMPI PUSH2 0x425 PUSH2 0x9C4 JUMP JUMPDEST PUSH1 0x20 MUL PUSH1 0x20 ADD ADD DUP2 DUP2 MSTORE POP POP PUSH1 0x0 DUP1 CALLER PUSH1 0x1 PUSH1 0x1 PUSH1 0xA0 SHL SUB AND PUSH1 0x1 PUSH1 0x1 PUSH1 0xA0 SHL SUB AND DUP2 MSTORE PUSH1 0x20 ADD SWAP1 DUP2 MSTORE PUSH1 0x20 ADD PUSH1 0x0 KECCAK256 PUSH1 0x4 ADD SLOAD DUP2 PUSH1 0x2 DUP2 MLOAD DUP2 LT PUSH2 0x46C JUMPI PUSH2 0x46C PUSH2 0x9C4 JUMP JUMPDEST PUSH1 0x20 MUL PUSH1 0x20 ADD ADD DUP2 DUP2 MSTORE POP POP PUSH1 0x0 DUP1 CALLER PUSH1 0x1 PUSH1 0x1 PUSH1 0xA0 SHL SUB AND PUSH1 0x1 PUSH1 0x1 PUSH1 0xA0 SHL SUB AND DUP2 MSTORE PUSH1 0x20 ADD SWAP1 DUP2 MSTORE PUSH1 0x20 ADD PUSH1 0x0 KECCAK256 PUSH1 0x5 ADD SLOAD DUP2 PUSH1 0x3 DUP2 MLOAD DUP2 LT PUSH2 0x4B3 JUMPI PUSH2 0x4B3 PUSH2 0x9C4 JUMP JUMPDEST PUSH1 0x20 MUL PUSH1 0x20 ADD ADD DUP2 DUP2 MSTORE POP POP PUSH1 0x0 DUP1 CALLER PUSH1 0x1 PUSH1 0x1 PUSH1 0xA0 SHL SUB AND PUSH1 0x1 PUSH1 0x1 PUSH1 0xA0 SHL SUB AND DUP2 MSTORE PUSH1 0x20 ADD SWAP1 DUP2 MSTORE PUSH1 0x20 ADD PUSH1 0x0 KECCAK256 PUSH1 0x6 ADD SLOAD DUP2 PUSH1 0x4 DUP2 MLOAD DUP2 LT PUSH2 0x4FA JUMPI PUSH2 0x4FA PUSH2 0x9C4 JUMP JUMPDEST PUSH1 0x20 MUL PUSH1 0x20 ADD ADD DUP2 DUP2 MSTORE POP POP PUSH1 0x0 DUP1 CALLER PUSH1 0x1 PUSH1 0x1 PUSH1 0xA0 SHL SUB AND PUSH1 0x1 PUSH1 0x1 PUSH1 0xA0 SHL SUB AND DUP2 MSTORE PUSH1 0x20 ADD SWAP1 DUP2 MSTORE PUSH1 0x20 ADD PUSH1 0x0 KECCAK256 PUSH1 0x7 ADD SLOAD DUP2 PUSH1 0x5 DUP2 MLOAD DUP2 LT PUSH2 0x541 JUMPI PUSH2 0x541 PUSH2 0x9C4 JUMP JUMPDEST PUSH1 0x20 MUL PUSH1 0x20 ADD ADD DUP2 DUP2 MSTORE POP POP PUSH1 0x0 DUP1 CALLER PUSH1 0x1 PUSH1 0x1 PUSH1 0xA0 SHL SUB AND PUSH1 0x1 PUSH1 0x1 PUSH1 0xA0 SHL SUB AND DUP2 MSTORE PUSH1 0x20 ADD SWAP1 DUP2 MSTORE PUSH1 0x20 ADD PUSH1 0x0 KECCAK256 PUSH1 0x8 ADD SLOAD DUP2 PUSH1 0x6 DUP2 MLOAD DUP2 LT PUSH2 0x588 JUMPI PUSH2 0x588 PUSH2 0x9C4 JUMP JUMPDEST PUSH1 0x20 MUL PUSH1 0x20 ADD ADD DUP2 DUP2 MSTORE POP POP PUSH1 0x0 DUP1 CALLER PUSH1 0x1 PUSH1 0x1 PUSH1 0xA0 SHL SUB AND PUSH1 0x1 PUSH1 0x1 PUSH1 0xA0 SHL SUB AND DUP2 MSTORE PUSH1 0x20 ADD SWAP1 DUP2 MSTORE PUSH1 0x20 ADD PUSH1 0x0 KECCAK256 PUSH1 0x9 ADD SLOAD DUP2 PUSH1 0x7 DUP2 MLOAD DUP2 LT PUSH2 0x5CF JUMPI PUSH2 0x5CF PUSH2 0x9C4 JUMP JUMPDEST PUSH1 0x20 MUL PUSH1 0x20 ADD ADD DUP2 DUP2 MSTORE POP POP PUSH1 0x0 DUP1 CALLER PUSH1 0x1 PUSH1 0x1 PUSH1 0xA0 SHL SUB AND PUSH1 0x1 PUSH1 0x1 PUSH1 0xA0 SHL SUB AND DUP2 MSTORE PUSH1 0x20 ADD SWAP1 DUP2 MSTORE PUSH1 0x20 ADD PUSH1 0x0 KECCAK256 PUSH1 0xA ADD SLOAD DUP2 PUSH1 0x8 DUP2 MLOAD DUP2 LT PUSH2 0x616 JUMPI PUSH2 0x616 PUSH2 0x9C4 JUMP JUMPDEST PUSH1 0x20 SWAP1 DUP2 MUL SWAP2 SWAP1 SWAP2 ADD ADD MSTORE SWAP2 SWAP1 POP JUMP JUMPDEST PUSH4 0x4E487B71 PUSH1 0xE0 SHL PUSH1 0x0 MSTORE PUSH1 0x41 PUSH1 0x4 MSTORE PUSH1 0x24 PUSH1 0x0 REVERT JUMPDEST PUSH1 0x0 DUP1 PUSH1 0x0 DUP1 PUSH1 0x0 DUP1 PUSH1 0x0 DUP1 PUSH1 0x0 DUP1 PUSH2 0x140 DUP12 DUP14 SUB SLT ISZERO PUSH2 0x65C JUMPI PUSH1 0x0 DUP1 REVERT JUMPDEST PUSH8 0xFFFFFFFFFFFFFFFF DUP1 DUP13 CALLDATALOAD GT ISZERO PUSH2 0x673 JUMPI PUSH1 0x0 DUP1 REVERT JUMPDEST DUP12 CALLDATALOAD DUP13 ADD DUP14 PUSH1 0x1F DUP3 ADD SLT PUSH2 0x686 JUMPI PUSH1 0x0 DUP1 REVERT JUMPDEST DUP2 DUP2 CALLDATALOAD GT ISZERO PUSH2 0x697 JUMPI PUSH2 0x697 PUSH2 0x626 JUMP JUMPDEST PUSH1 0x40 MLOAD DUP2 CALLDATALOAD PUSH1 0x1F ADD PUSH1 0x1F NOT SWAP1 DUP2 AND PUSH1 0x3F ADD AND DUP2 ADD SWAP1 DUP4 DUP3 GT DUP2 DUP4 LT OR ISZERO PUSH2 0x6C0 JUMPI PUSH2 0x6C0 PUSH2 0x626 JUMP JUMPDEST DUP2 PUSH1 0x40 MSTORE DUP3 CALLDATALOAD DUP2 MSTORE DUP16 PUSH1 0x20 DUP5 CALLDATALOAD DUP6 ADD ADD GT ISZERO PUSH2 0x6DB JUMPI PUSH1 0x0 DUP1 REVERT JUMPDEST DUP3 CALLDATALOAD PUSH1 0x20 DUP5 ADD PUSH1 0x20 DUP4 ADD CALLDATACOPY PUSH1 0x0 PUSH1 0x20 SWAP4 CALLDATALOAD DUP3 ADD DUP5 ADD MSTORE SWAP16 SWAP2 DUP15 ADD CALLDATALOAD SWAP15 POP POP PUSH1 0x40 DUP14 ADD CALLDATALOAD SWAP13 PUSH1 0x60 DUP2 ADD CALLDATALOAD SWAP13 POP PUSH1 0x80 DUP2 ADD CALLDATALOAD SWAP12 POP PUSH1 0xA0 DUP2 ADD CALLDATALOAD SWAP11 POP PUSH1 0xC0 DUP2 ADD CALLDATALOAD SWAP10 POP PUSH1 0xE0 DUP2 ADD CALLDATALOAD SWAP9 POP PUSH2 0x100 DUP2 ADD CALLDATALOAD SWAP8 POP PUSH2 0x120 ADD CALLDATALOAD SWAP6 POP SWAP4 POP POP POP POP JUMP JUMPDEST PUSH1 0x0 DUP2 MLOAD DUP1 DUP5 MSTORE PUSH1 0x0 JUMPDEST DUP2 DUP2 LT ISZERO PUSH2 0x75E JUMPI PUSH1 0x20 DUP2 DUP6 ADD DUP2 ADD MLOAD DUP7 DUP4 ADD DUP3 ADD MSTORE ADD PUSH2 0x742 JUMP JUMPDEST POP PUSH1 0x0 PUSH1 0x20 DUP3 DUP7 ADD ADD MSTORE PUSH1 0x20 PUSH1 0x1F NOT PUSH1 0x1F DUP4 ADD AND DUP6 ADD ADD SWAP2 POP POP SWAP3 SWAP2 POP POP JUMP JUMPDEST PUSH1 0x20 DUP2 MSTORE PUSH1 0x0 PUSH2 0x791 PUSH1 0x20 DUP4 ADD DUP5 PUSH2 0x738 JUMP JUMPDEST SWAP4 SWAP3 POP POP POP JUMP JUMPDEST PUSH1 0x0 PUSH1 0x20 DUP3 DUP5 SUB SLT ISZERO PUSH2 0x7AA JUMPI PUSH1 0x0 DUP1 REVERT JUMPDEST DUP2 CALLDATALOAD PUSH1 0x1 PUSH1 0x1 PUSH1 0xA0 SHL SUB DUP2 AND DUP2 EQ PUSH2 0x791 JUMPI PUSH1 0x0 DUP1 REVERT JUMPDEST PUSH1 0x1 PUSH1 0x1 PUSH1 0xA0 SHL SUB DUP14 AND DUP2 MSTORE PUSH2 0x180 PUSH1 0x20 DUP3 ADD DUP2 SWAP1 MSTORE PUSH1 0x0 SWAP1 PUSH2 0x7E6 DUP4 DUP3 ADD DUP16 PUSH2 0x738 JUMP JUMPDEST PUSH1 0x40 DUP5 ADD SWAP14 SWAP1 SWAP14 MSTORE POP POP PUSH1 0x60 DUP2 ADD SWAP10 SWAP1 SWAP10 MSTORE PUSH1 0x80 DUP10 ADD SWAP8 SWAP1 SWAP8 MSTORE PUSH1 0xA0 DUP9 ADD SWAP6 SWAP1 SWAP6 MSTORE PUSH1 0xC0 DUP8 ADD SWAP4 SWAP1 SWAP4 MSTORE PUSH1 0xE0 DUP7 ADD SWAP2 SWAP1 SWAP2 MSTORE PUSH2 0x100 DUP6 ADD MSTORE PUSH2 0x120 DUP5 ADD MSTORE PUSH2 0x140 DUP4 ADD MSTORE PUSH2 0x160 SWAP1 SWAP2 ADD MSTORE SWAP3 SWAP2 POP POP JUMP JUMPDEST PUSH1 0x20 DUP1 DUP3 MSTORE DUP3 MLOAD DUP3 DUP3 ADD DUP2 SWAP1 MSTORE PUSH1 0x0 SWAP2 SWAP1 DUP5 DUP3 ADD SWAP1 PUSH1 0x40 DUP6 ADD SWAP1 DUP5 JUMPDEST DUP2 DUP2 LT ISZERO PUSH2 0x86F JUMPI DUP4 MLOAD DUP4 MSTORE SWAP3 DUP5 ADD SWAP3 SWAP2 DUP5 ADD SWAP2 PUSH1 0x1 ADD PUSH2 0x853 JUMP JUMPDEST POP SWAP1 SWAP7 SWAP6 POP POP POP POP POP POP JUMP JUMPDEST PUSH1 0x1 DUP2 DUP2 SHR SWAP1 DUP3 AND DUP1 PUSH2 0x88F JUMPI PUSH1 0x7F DUP3 AND SWAP2 POP JUMPDEST PUSH1 0x20 DUP3 LT DUP2 SUB PUSH2 0x8AF JUMPI PUSH4 0x4E487B71 PUSH1 0xE0 SHL PUSH1 0x0 MSTORE PUSH1 0x22 PUSH1 0x4 MSTORE PUSH1 0x24 PUSH1 0x0 REVERT JUMPDEST POP SWAP2 SWAP1 POP JUMP JUMPDEST PUSH1 0x1F DUP3 GT ISZERO PUSH2 0x8FF JUMPI PUSH1 0x0 DUP2 DUP2 MSTORE PUSH1 0x20 DUP2 KECCAK256 PUSH1 0x1F DUP6 ADD PUSH1 0x5 SHR DUP2 ADD PUSH1 0x20 DUP7 LT ISZERO PUSH2 0x8DC JUMPI POP DUP1 JUMPDEST PUSH1 0x1F DUP6 ADD PUSH1 0x5 SHR DUP3 ADD SWAP2 POP JUMPDEST DUP2 DUP2 LT ISZERO PUSH2 0x8FB JUMPI DUP3 DUP2 SSTORE PUSH1 0x1 ADD PUSH2 0x8E8 JUMP JUMPDEST POP POP POP JUMPDEST POP POP POP JUMP JUMPDEST DUP2 MLOAD PUSH8 0xFFFFFFFFFFFFFFFF DUP2 GT ISZERO PUSH2 0x91E JUMPI PUSH2 0x91E PUSH2 0x626 JUMP JUMPDEST PUSH2 0x932 DUP2 PUSH2 0x92C DUP5 SLOAD PUSH2 0x87B JUMP JUMPDEST DUP5 PUSH2 0x8B5 JUMP JUMPDEST PUSH1 0x20 DUP1 PUSH1 0x1F DUP4 GT PUSH1 0x1 DUP2 EQ PUSH2 0x967 JUMPI PUSH1 0x0 DUP5 ISZERO PUSH2 0x94F JUMPI POP DUP6 DUP4 ADD MLOAD JUMPDEST PUSH1 0x0 NOT PUSH1 0x3 DUP7 SWAP1 SHL SHR NOT AND PUSH1 0x1 DUP6 SWAP1 SHL OR DUP6 SSTORE PUSH2 0x8FB JUMP JUMPDEST PUSH1 0x0 DUP6 DUP2 MSTORE PUSH1 0x20 DUP2 KECCAK256 PUSH1 0x1F NOT DUP7 AND SWAP2 JUMPDEST DUP3 DUP2 LT ISZERO PUSH2 0x996 JUMPI DUP9 DUP7 ADD MLOAD DUP3 SSTORE SWAP5 DUP5 ADD SWAP5 PUSH1 0x1 SWAP1 SWAP2 ADD SWAP1 DUP5 ADD PUSH2 0x977 JUMP JUMPDEST POP DUP6 DUP3 LT ISZERO PUSH2 0x9B4 JUMPI DUP8 DUP6 ADD MLOAD PUSH1 0x0 NOT PUSH1 0x3 DUP9 SWAP1 SHL PUSH1 0xF8 AND SHR NOT AND DUP2 SSTORE JUMPDEST POP POP POP POP POP PUSH1 0x1 SWAP1 DUP2 SHL ADD SWAP1 SSTORE POP JUMP JUMPDEST PUSH4 0x4E487B71 PUSH1 0xE0 SHL PUSH1 0x0 MSTORE PUSH1 0x32 PUSH1 0x4 MSTORE PUSH1 0x24 PUSH1 0x0 REVERT INVALID LOG2 PUSH5 0x6970667358 0x22 SLT KECCAK256 LT PUSH11 0x9DAED352F8889AC2A11228 XOR 0xE7 LOG3 SWAP9 EXTCODEHASH 0xE1 LOG1 0xC2 SLOAD MSTORE SWAP14 0xF6 0xE RETURNDATACOPY SHL DUP3 GT DUP16 PUSH18 0x64736F6C6343000810003300000000000000 ",
  "sha1": "bab4d5ed62f53cb8f357f3f65513c38f5672dcde",
  "source": "// SPDX-License-Identifier: MIT\n\npragma solidity >=0.6.0 <0.9.0;\n\ncontract RSACertification {\n    struct Certificate {\n        address certificate_owner;\n        string name;\n        bytes32 public_key_part1;\n        bytes32 public_key_part2;\n        bytes32 public_key_part3;\n        bytes32 public_key_part4;\n        bytes32 public_key_part5;\n        bytes32 public_key_part6;\n        bytes32 public_key_part7;\n        bytes32 public_key_part8;\n        bytes32 public_key_part9;\n        uint256 timestamp;\n    }\n\n    mapping(address => Certificate) public nameToCertificate;\n\n    // create a certificate\n    function createCertificate(\n        string memory _name,\n        bytes32 _public_key_part1,\n        bytes32 _public_key_part2,\n        bytes32 _public_key_part3,\n        bytes32 _public_key_part4,\n        bytes32 _public_key_part5,\n        bytes32 _public_key_part6,\n        bytes32 _public_key_part7,\n        bytes32 _public_key_part8,\n        bytes32 _public_key_part9\n    ) public {\n        nameToCertificate[msg.sender] = Certificate(\n            msg.sender,\n            _name,\n            _public_key_part1,\n            _public_key_part2,\n            _public_key_part3,\n            _public_key_part4,\n            _public_key_part5,\n            _public_key_part6,\n            _public_key_part7,\n            _public_key_part8,\n            _public_key_part9,\n            block.timestamp\n        );\n    }\n\n    // signature using RSA\n    // function signWithRSA() private view returns (bytes32[] memory) {\n    //     bytes32[] memory signatures = new bytes32[](4);\n    //     signatures[0] = nameToCertificate[msg.sender].signature_part1;\n    //     signatures[1] = nameToCertificate[msg.sender].signature_part2;\n    //     signatures[2] = nameToCertificate[msg.sender].signature_part3;\n    //     signatures[3] = nameToCertificate[msg.sender].signature_part4;\n    //     return signatures;\n    // }\n\n    // verification using RSA\n    // function verifyWithRSA(bool result) public view returns (bool) {\n    //     return result;\n    // }\n\n    function getName() public view returns (string memory) {\n        return nameToCertificate[msg.sender].name;\n    }\n\n    function getPublicKey() public view returns (bytes32[] memory) {\n        bytes32[] memory public_keys = new bytes32[](9);\n        public_keys[0] = nameToCertificate[msg.sender].public_key_part1;\n        public_keys[1] = nameToCertificate[msg.sender].public_key_part2;\n        public_keys[2] = nameToCertificate[msg.sender].public_key_part3;\n        public_keys[3] = nameToCertificate[msg.sender].public_key_part4;\n        public_keys[4] = nameToCertificate[msg.sender].public_key_part5;\n        public_keys[5] = nameToCertificate[msg.sender].public_key_part6;\n        public_keys[6] = nameToCertificate[msg.sender].public_key_part7;\n        public_keys[7] = nameToCertificate[msg.sender].public_key_part8;\n        public_keys[8] = nameToCertificate[msg.sender].public_key_part9;\n        return public_keys;\n    }\n\n    function getTimestamp() public view returns (uint256) {\n        return nameToCertificate[msg.sender].timestamp;\n    }\n}\n",
  "sourcePath": "contracts/RSACertification.sol",
  "type": "contract"
}