{
  "abi": [
    {
      "inputs": [
        {
          "internalType": "string",
          "name": "_name",
          "type": "string"
        },
        {
          "internalType": "uint256",
          "name": "_public_key",
          "type": "uint256"
        }
      ],
      "name": "createCertificate",
      "outputs": [],
      "stateMutability": "nonpayable",
      "type": "function"
    },
    {
      "inputs": [],
      "name": "getName",
      "outputs": [
        {
          "internalType": "string",
          "name": "",
          "type": "string"
        }
      ],
      "stateMutability": "view",
      "type": "function"
    },
    {
      "inputs": [
        {
          "internalType": "uint256",
          "name": "n",
          "type": "uint256"
        },
        {
          "internalType": "uint256",
          "name": "d",
          "type": "uint256"
        }
      ],
      "name": "getSignedPublicKey",
      "outputs": [
        {
          "internalType": "uint256",
          "name": "",
          "type": "uint256"
        }
      ],
      "stateMutability": "view",
      "type": "function"
    },
    {
      "inputs": [],
      "name": "getTimestamp",
      "outputs": [
        {
          "internalType": "uint256",
          "name": "",
          "type": "uint256"
        }
      ],
      "stateMutability": "view",
      "type": "function"
    },
    {
      "inputs": [
        {
          "internalType": "address",
          "name": "",
          "type": "address"
        }
      ],
      "name": "nameToCertificate",
      "outputs": [
        {
          "internalType": "address",
          "name": "certificate_owner",
          "type": "address"
        },
        {
          "internalType": "string",
          "name": "name",
          "type": "string"
        },
        {
          "internalType": "uint256",
          "name": "public_key",
          "type": "uint256"
        },
        {
          "internalType": "uint256",
          "name": "timestamp",
          "type": "uint256"
        }
      ],
      "stateMutability": "view",
      "type": "function"
    },
    {
      "inputs": [
        {
          "internalType": "uint256",
          "name": "public_key",
          "type": "uint256"
        },
        {
          "internalType": "uint256",
          "name": "signature",
          "type": "uint256"
        },
        {
          "internalType": "uint256",
          "name": "e",
          "type": "uint256"
        },
        {
          "internalType": "uint256",
          "name": "n",
          "type": "uint256"
        }
      ],
      "name": "verifyWithRSA",
      "outputs": [
        {
          "internalType": "bool",
          "name": "",
          "type": "bool"
        }
      ],
      "stateMutability": "view",
      "type": "function"
    }
  ],
  "bytecode": "608060405234801561001057600080fd5b506107df806100206000396000f3fe608060405234801561001057600080fd5b50600436106100625760003560e01c806317d7de7c1461006757806317e2bd4614610085578063188ec356146100a8578063708ebea3146100ca5780639c8fd6f7146100ed578063c9e6a7c214610100575b600080fd5b61006f610115565b60405161007c919061039f565b60405180910390f35b6100986100933660046103b2565b6101b9565b60405161007c94939291906103e2565b336000908152602081905260409020600301545b60405190815260200161007c565b6100dd6100d8366004610419565b610274565b604051901515815260200161007c565b6100bc6100fb36600461044b565b610298565b61011361010e366004610483565b6102bf565b005b33600090815260208190526040902060010180546060919061013690610538565b80601f016020809104026020016040519081016040528092919081815260200182805461016290610538565b80156101af5780601f10610184576101008083540402835291602001916101af565b820191906000526020600020905b81548152906001019060200180831161019257829003601f168201915b5050505050905090565b600060208190529081526040902080546001820180546001600160a01b0390921692916101e590610538565b80601f016020809104026020016040519081016040528092919081815260200182805461021190610538565b801561025e5780601f106102335761010080835404028352916020019161025e565b820191906000526020600020905b81548152906001019060200180831161024157829003601f168201915b5050505050908060020154908060030154905084565b60008082610282858761066c565b61028c9190610678565b90951495945050505050565b336000908152602081905260408120600201546102b6908484610338565b90505b92915050565b60408051608081018252338082526020808301868152838501869052426060850152600092835290829052929020815181546001600160a01b0319166001600160a01b039091161781559151909190600182019061031d90826106e9565b50604082015160028201556060909101516003909101555050565b60008083610346848761066c565b6103509190610678565b95945050505050565b6000815180845260005b8181101561037f57602081850181015186830182015201610363565b506000602082860101526020601f19601f83011685010191505092915050565b6020815260006102b66020830184610359565b6000602082840312156103c457600080fd5b81356001600160a01b03811681146103db57600080fd5b9392505050565b6001600160a01b038516815260806020820181905260009061040690830186610359565b6040830194909452506060015292915050565b6000806000806080858703121561042f57600080fd5b5050823594602084013594506040840135936060013592509050565b6000806040838503121561045e57600080fd5b50508035926020909101359150565b634e487b7160e01b600052604160045260246000fd5b6000806040838503121561049657600080fd5b823567ffffffffffffffff808211156104ae57600080fd5b818501915085601f8301126104c257600080fd5b8135818111156104d4576104d461046d565b604051601f8201601f19908116603f011681019083821181831017156104fc576104fc61046d565b8160405282815288602084870101111561051557600080fd5b826020860160208301376000602093820184015298969091013596505050505050565b600181811c9082168061054c57607f821691505b60208210810361056c57634e487b7160e01b600052602260045260246000fd5b50919050565b634e487b7160e01b600052601160045260246000fd5b600181815b808511156105c35781600019048211156105a9576105a9610572565b808516156105b657918102915b93841c939080029061058d565b509250929050565b6000826105da575060016102b9565b816105e7575060006102b9565b81600181146105fd576002811461060757610623565b60019150506102b9565b60ff84111561061857610618610572565b50506001821b6102b9565b5060208310610133831016604e8410600b8410161715610646575081810a6102b9565b6106508383610588565b806000190482111561066457610664610572565b029392505050565b60006102b683836105cb565b60008261069557634e487b7160e01b600052601260045260246000fd5b500690565b601f8211156106e457600081815260208120601f850160051c810160208610156106c15750805b601f850160051c820191505b818110156106e0578281556001016106cd565b5050505b505050565b815167ffffffffffffffff8111156107035761070361046d565b610717816107118454610538565b8461069a565b602080601f83116001811461074c57600084156107345750858301515b600019600386901b1c1916600185901b1785556106e0565b600085815260208120601f198616915b8281101561077b5788860151825594840194600190910190840161075c565b50858210156107995787850151600019600388901b60f8161c191681555b5050505050600190811b0190555056fea2646970667358221220a3fcfebeffb673babd8c3a86bce6255c218e1c7895d61108c9402c8e9e01fc9364736f6c63430008100033",
  "bytecodeSha1": "01034bdeee2e1adbff584ec725880ae17a53736c",
  "compiler": {
    "evm_version": "istanbul",
    "optimizer": {
      "enabled": true,
      "runs": 200
    },
    "version": "0.8.16+commit.07a7930e"
  },
  "contractName": "RSACertification",
  "language": "Solidity",
  "natspec": {
    "kind": "dev",
    "methods": {},
    "version": 1
  },
  "opcodes": "PUSH1 0x80 PUSH1 0x40 MSTORE CALLVALUE DUP1 ISZERO PUSH2 0x10 JUMPI PUSH1 0x0 DUP1 REVERT JUMPDEST POP PUSH1 0x4 CALLDATASIZE LT PUSH2 0x62 JUMPI PUSH1 0x0 CALLDATALOAD PUSH1 0xE0 SHR DUP1 PUSH4 0x17D7DE7C EQ PUSH2 0x67 JUMPI DUP1 PUSH4 0x17E2BD46 EQ PUSH2 0x85 JUMPI DUP1 PUSH4 0x188EC356 EQ PUSH2 0xA8 JUMPI DUP1 PUSH4 0x708EBEA3 EQ PUSH2 0xCA JUMPI DUP1 PUSH4 0x9C8FD6F7 EQ PUSH2 0xED JUMPI DUP1 PUSH4 0xC9E6A7C2 EQ PUSH2 0x100 JUMPI JUMPDEST PUSH1 0x0 DUP1 REVERT JUMPDEST PUSH2 0x6F PUSH2 0x115 JUMP JUMPDEST PUSH1 0x40 MLOAD PUSH2 0x7C SWAP2 SWAP1 PUSH2 0x39F JUMP JUMPDEST PUSH1 0x40 MLOAD DUP1 SWAP2 SUB SWAP1 RETURN JUMPDEST PUSH2 0x98 PUSH2 0x93 CALLDATASIZE PUSH1 0x4 PUSH2 0x3B2 JUMP JUMPDEST PUSH2 0x1B9 JUMP JUMPDEST PUSH1 0x40 MLOAD PUSH2 0x7C SWAP5 SWAP4 SWAP3 SWAP2 SWAP1 PUSH2 0x3E2 JUMP JUMPDEST CALLER PUSH1 0x0 SWAP1 DUP2 MSTORE PUSH1 0x20 DUP2 SWAP1 MSTORE PUSH1 0x40 SWAP1 KECCAK256 PUSH1 0x3 ADD SLOAD JUMPDEST PUSH1 0x40 MLOAD SWAP1 DUP2 MSTORE PUSH1 0x20 ADD PUSH2 0x7C JUMP JUMPDEST PUSH2 0xDD PUSH2 0xD8 CALLDATASIZE PUSH1 0x4 PUSH2 0x419 JUMP JUMPDEST PUSH2 0x274 JUMP JUMPDEST PUSH1 0x40 MLOAD SWAP1 ISZERO ISZERO DUP2 MSTORE PUSH1 0x20 ADD PUSH2 0x7C JUMP JUMPDEST PUSH2 0xBC PUSH2 0xFB CALLDATASIZE PUSH1 0x4 PUSH2 0x44B JUMP JUMPDEST PUSH2 0x298 JUMP JUMPDEST PUSH2 0x113 PUSH2 0x10E CALLDATASIZE PUSH1 0x4 PUSH2 0x483 JUMP JUMPDEST PUSH2 0x2BF JUMP JUMPDEST STOP JUMPDEST CALLER PUSH1 0x0 SWAP1 DUP2 MSTORE PUSH1 0x20 DUP2 SWAP1 MSTORE PUSH1 0x40 SWAP1 KECCAK256 PUSH1 0x1 ADD DUP1 SLOAD PUSH1 0x60 SWAP2 SWAP1 PUSH2 0x136 SWAP1 PUSH2 0x538 JUMP JUMPDEST DUP1 PUSH1 0x1F ADD PUSH1 0x20 DUP1 SWAP2 DIV MUL PUSH1 0x20 ADD PUSH1 0x40 MLOAD SWAP1 DUP2 ADD PUSH1 0x40 MSTORE DUP1 SWAP3 SWAP2 SWAP1 DUP2 DUP2 MSTORE PUSH1 0x20 ADD DUP3 DUP1 SLOAD PUSH2 0x162 SWAP1 PUSH2 0x538 JUMP JUMPDEST DUP1 ISZERO PUSH2 0x1AF JUMPI DUP1 PUSH1 0x1F LT PUSH2 0x184 JUMPI PUSH2 0x100 DUP1 DUP4 SLOAD DIV MUL DUP4 MSTORE SWAP2 PUSH1 0x20 ADD SWAP2 PUSH2 0x1AF JUMP JUMPDEST DUP3 ADD SWAP2 SWAP1 PUSH1 0x0 MSTORE PUSH1 0x20 PUSH1 0x0 KECCAK256 SWAP1 JUMPDEST DUP2 SLOAD DUP2 MSTORE SWAP1 PUSH1 0x1 ADD SWAP1 PUSH1 0x20 ADD DUP1 DUP4 GT PUSH2 0x192 JUMPI DUP3 SWAP1 SUB PUSH1 0x1F AND DUP3 ADD SWAP2 JUMPDEST POP POP POP POP POP SWAP1 POP SWAP1 JUMP JUMPDEST PUSH1 0x0 PUSH1 0x20 DUP2 SWAP1 MSTORE SWAP1 DUP2 MSTORE PUSH1 0x40 SWAP1 KECCAK256 DUP1 SLOAD PUSH1 0x1 DUP3 ADD DUP1 SLOAD PUSH1 0x1 PUSH1 0x1 PUSH1 0xA0 SHL SUB SWAP1 SWAP3 AND SWAP3 SWAP2 PUSH2 0x1E5 SWAP1 PUSH2 0x538 JUMP JUMPDEST DUP1 PUSH1 0x1F ADD PUSH1 0x20 DUP1 SWAP2 DIV MUL PUSH1 0x20 ADD PUSH1 0x40 MLOAD SWAP1 DUP2 ADD PUSH1 0x40 MSTORE DUP1 SWAP3 SWAP2 SWAP1 DUP2 DUP2 MSTORE PUSH1 0x20 ADD DUP3 DUP1 SLOAD PUSH2 0x211 SWAP1 PUSH2 0x538 JUMP JUMPDEST DUP1 ISZERO PUSH2 0x25E JUMPI DUP1 PUSH1 0x1F LT PUSH2 0x233 JUMPI PUSH2 0x100 DUP1 DUP4 SLOAD DIV MUL DUP4 MSTORE SWAP2 PUSH1 0x20 ADD SWAP2 PUSH2 0x25E JUMP JUMPDEST DUP3 ADD SWAP2 SWAP1 PUSH1 0x0 MSTORE PUSH1 0x20 PUSH1 0x0 KECCAK256 SWAP1 JUMPDEST DUP2 SLOAD DUP2 MSTORE SWAP1 PUSH1 0x1 ADD SWAP1 PUSH1 0x20 ADD DUP1 DUP4 GT PUSH2 0x241 JUMPI DUP3 SWAP1 SUB PUSH1 0x1F AND DUP3 ADD SWAP2 JUMPDEST POP POP POP POP POP SWAP1 DUP1 PUSH1 0x2 ADD SLOAD SWAP1 DUP1 PUSH1 0x3 ADD SLOAD SWAP1 POP DUP5 JUMP JUMPDEST PUSH1 0x0 DUP1 DUP3 PUSH2 0x282 DUP6 DUP8 PUSH2 0x66C JUMP JUMPDEST PUSH2 0x28C SWAP2 SWAP1 PUSH2 0x678 JUMP JUMPDEST SWAP1 SWAP6 EQ SWAP6 SWAP5 POP POP POP POP POP JUMP JUMPDEST CALLER PUSH1 0x0 SWAP1 DUP2 MSTORE PUSH1 0x20 DUP2 SWAP1 MSTORE PUSH1 0x40 DUP2 KECCAK256 PUSH1 0x2 ADD SLOAD PUSH2 0x2B6 SWAP1 DUP5 DUP5 PUSH2 0x338 JUMP JUMPDEST SWAP1 POP JUMPDEST SWAP3 SWAP2 POP POP JUMP JUMPDEST PUSH1 0x40 DUP1 MLOAD PUSH1 0x80 DUP2 ADD DUP3 MSTORE CALLER DUP1 DUP3 MSTORE PUSH1 0x20 DUP1 DUP4 ADD DUP7 DUP2 MSTORE DUP4 DUP6 ADD DUP7 SWAP1 MSTORE TIMESTAMP PUSH1 0x60 DUP6 ADD MSTORE PUSH1 0x0 SWAP3 DUP4 MSTORE SWAP1 DUP3 SWAP1 MSTORE SWAP3 SWAP1 KECCAK256 DUP2 MLOAD DUP2 SLOAD PUSH1 0x1 PUSH1 0x1 PUSH1 0xA0 SHL SUB NOT AND PUSH1 0x1 PUSH1 0x1 PUSH1 0xA0 SHL SUB SWAP1 SWAP2 AND OR DUP2 SSTORE SWAP2 MLOAD SWAP1 SWAP2 SWAP1 PUSH1 0x1 DUP3 ADD SWAP1 PUSH2 0x31D SWAP1 DUP3 PUSH2 0x6E9 JUMP JUMPDEST POP PUSH1 0x40 DUP3 ADD MLOAD PUSH1 0x2 DUP3 ADD SSTORE PUSH1 0x60 SWAP1 SWAP2 ADD MLOAD PUSH1 0x3 SWAP1 SWAP2 ADD SSTORE POP POP JUMP JUMPDEST PUSH1 0x0 DUP1 DUP4 PUSH2 0x346 DUP5 DUP8 PUSH2 0x66C JUMP JUMPDEST PUSH2 0x350 SWAP2 SWAP1 PUSH2 0x678 JUMP JUMPDEST SWAP6 SWAP5 POP POP POP POP POP JUMP JUMPDEST PUSH1 0x0 DUP2 MLOAD DUP1 DUP5 MSTORE PUSH1 0x0 JUMPDEST DUP2 DUP2 LT ISZERO PUSH2 0x37F JUMPI PUSH1 0x20 DUP2 DUP6 ADD DUP2 ADD MLOAD DUP7 DUP4 ADD DUP3 ADD MSTORE ADD PUSH2 0x363 JUMP JUMPDEST POP PUSH1 0x0 PUSH1 0x20 DUP3 DUP7 ADD ADD MSTORE PUSH1 0x20 PUSH1 0x1F NOT PUSH1 0x1F DUP4 ADD AND DUP6 ADD ADD SWAP2 POP POP SWAP3 SWAP2 POP POP JUMP JUMPDEST PUSH1 0x20 DUP2 MSTORE PUSH1 0x0 PUSH2 0x2B6 PUSH1 0x20 DUP4 ADD DUP5 PUSH2 0x359 JUMP JUMPDEST PUSH1 0x0 PUSH1 0x20 DUP3 DUP5 SUB SLT ISZERO PUSH2 0x3C4 JUMPI PUSH1 0x0 DUP1 REVERT JUMPDEST DUP2 CALLDATALOAD PUSH1 0x1 PUSH1 0x1 PUSH1 0xA0 SHL SUB DUP2 AND DUP2 EQ PUSH2 0x3DB JUMPI PUSH1 0x0 DUP1 REVERT JUMPDEST SWAP4 SWAP3 POP POP POP JUMP JUMPDEST PUSH1 0x1 PUSH1 0x1 PUSH1 0xA0 SHL SUB DUP6 AND DUP2 MSTORE PUSH1 0x80 PUSH1 0x20 DUP3 ADD DUP2 SWAP1 MSTORE PUSH1 0x0 SWAP1 PUSH2 0x406 SWAP1 DUP4 ADD DUP7 PUSH2 0x359 JUMP JUMPDEST PUSH1 0x40 DUP4 ADD SWAP5 SWAP1 SWAP5 MSTORE POP PUSH1 0x60 ADD MSTORE SWAP3 SWAP2 POP POP JUMP JUMPDEST PUSH1 0x0 DUP1 PUSH1 0x0 DUP1 PUSH1 0x80 DUP6 DUP8 SUB SLT ISZERO PUSH2 0x42F JUMPI PUSH1 0x0 DUP1 REVERT JUMPDEST POP POP DUP3 CALLDATALOAD SWAP5 PUSH1 0x20 DUP5 ADD CALLDATALOAD SWAP5 POP PUSH1 0x40 DUP5 ADD CALLDATALOAD SWAP4 PUSH1 0x60 ADD CALLDATALOAD SWAP3 POP SWAP1 POP JUMP JUMPDEST PUSH1 0x0 DUP1 PUSH1 0x40 DUP4 DUP6 SUB SLT ISZERO PUSH2 0x45E JUMPI PUSH1 0x0 DUP1 REVERT JUMPDEST POP POP DUP1 CALLDATALOAD SWAP3 PUSH1 0x20 SWAP1 SWAP2 ADD CALLDATALOAD SWAP2 POP JUMP JUMPDEST PUSH4 0x4E487B71 PUSH1 0xE0 SHL PUSH1 0x0 MSTORE PUSH1 0x41 PUSH1 0x4 MSTORE PUSH1 0x24 PUSH1 0x0 REVERT JUMPDEST PUSH1 0x0 DUP1 PUSH1 0x40 DUP4 DUP6 SUB SLT ISZERO PUSH2 0x496 JUMPI PUSH1 0x0 DUP1 REVERT JUMPDEST DUP3 CALLDATALOAD PUSH8 0xFFFFFFFFFFFFFFFF DUP1 DUP3 GT ISZERO PUSH2 0x4AE JUMPI PUSH1 0x0 DUP1 REVERT JUMPDEST DUP2 DUP6 ADD SWAP2 POP DUP6 PUSH1 0x1F DUP4 ADD SLT PUSH2 0x4C2 JUMPI PUSH1 0x0 DUP1 REVERT JUMPDEST DUP2 CALLDATALOAD DUP2 DUP2 GT ISZERO PUSH2 0x4D4 JUMPI PUSH2 0x4D4 PUSH2 0x46D JUMP JUMPDEST PUSH1 0x40 MLOAD PUSH1 0x1F DUP3 ADD PUSH1 0x1F NOT SWAP1 DUP2 AND PUSH1 0x3F ADD AND DUP2 ADD SWAP1 DUP4 DUP3 GT DUP2 DUP4 LT OR ISZERO PUSH2 0x4FC JUMPI PUSH2 0x4FC PUSH2 0x46D JUMP JUMPDEST DUP2 PUSH1 0x40 MSTORE DUP3 DUP2 MSTORE DUP9 PUSH1 0x20 DUP5 DUP8 ADD ADD GT ISZERO PUSH2 0x515 JUMPI PUSH1 0x0 DUP1 REVERT JUMPDEST DUP3 PUSH1 0x20 DUP7 ADD PUSH1 0x20 DUP4 ADD CALLDATACOPY PUSH1 0x0 PUSH1 0x20 SWAP4 DUP3 ADD DUP5 ADD MSTORE SWAP9 SWAP7 SWAP1 SWAP2 ADD CALLDATALOAD SWAP7 POP POP POP POP POP POP JUMP JUMPDEST PUSH1 0x1 DUP2 DUP2 SHR SWAP1 DUP3 AND DUP1 PUSH2 0x54C JUMPI PUSH1 0x7F DUP3 AND SWAP2 POP JUMPDEST PUSH1 0x20 DUP3 LT DUP2 SUB PUSH2 0x56C JUMPI PUSH4 0x4E487B71 PUSH1 0xE0 SHL PUSH1 0x0 MSTORE PUSH1 0x22 PUSH1 0x4 MSTORE PUSH1 0x24 PUSH1 0x0 REVERT JUMPDEST POP SWAP2 SWAP1 POP JUMP JUMPDEST PUSH4 0x4E487B71 PUSH1 0xE0 SHL PUSH1 0x0 MSTORE PUSH1 0x11 PUSH1 0x4 MSTORE PUSH1 0x24 PUSH1 0x0 REVERT JUMPDEST PUSH1 0x1 DUP2 DUP2 JUMPDEST DUP1 DUP6 GT ISZERO PUSH2 0x5C3 JUMPI DUP2 PUSH1 0x0 NOT DIV DUP3 GT ISZERO PUSH2 0x5A9 JUMPI PUSH2 0x5A9 PUSH2 0x572 JUMP JUMPDEST DUP1 DUP6 AND ISZERO PUSH2 0x5B6 JUMPI SWAP2 DUP2 MUL SWAP2 JUMPDEST SWAP4 DUP5 SHR SWAP4 SWAP1 DUP1 MUL SWAP1 PUSH2 0x58D JUMP JUMPDEST POP SWAP3 POP SWAP3 SWAP1 POP JUMP JUMPDEST PUSH1 0x0 DUP3 PUSH2 0x5DA JUMPI POP PUSH1 0x1 PUSH2 0x2B9 JUMP JUMPDEST DUP2 PUSH2 0x5E7 JUMPI POP PUSH1 0x0 PUSH2 0x2B9 JUMP JUMPDEST DUP2 PUSH1 0x1 DUP2 EQ PUSH2 0x5FD JUMPI PUSH1 0x2 DUP2 EQ PUSH2 0x607 JUMPI PUSH2 0x623 JUMP JUMPDEST PUSH1 0x1 SWAP2 POP POP PUSH2 0x2B9 JUMP JUMPDEST PUSH1 0xFF DUP5 GT ISZERO PUSH2 0x618 JUMPI PUSH2 0x618 PUSH2 0x572 JUMP JUMPDEST POP POP PUSH1 0x1 DUP3 SHL PUSH2 0x2B9 JUMP JUMPDEST POP PUSH1 0x20 DUP4 LT PUSH2 0x133 DUP4 LT AND PUSH1 0x4E DUP5 LT PUSH1 0xB DUP5 LT AND OR ISZERO PUSH2 0x646 JUMPI POP DUP2 DUP2 EXP PUSH2 0x2B9 JUMP JUMPDEST PUSH2 0x650 DUP4 DUP4 PUSH2 0x588 JUMP JUMPDEST DUP1 PUSH1 0x0 NOT DIV DUP3 GT ISZERO PUSH2 0x664 JUMPI PUSH2 0x664 PUSH2 0x572 JUMP JUMPDEST MUL SWAP4 SWAP3 POP POP POP JUMP JUMPDEST PUSH1 0x0 PUSH2 0x2B6 DUP4 DUP4 PUSH2 0x5CB JUMP JUMPDEST PUSH1 0x0 DUP3 PUSH2 0x695 JUMPI PUSH4 0x4E487B71 PUSH1 0xE0 SHL PUSH1 0x0 MSTORE PUSH1 0x12 PUSH1 0x4 MSTORE PUSH1 0x24 PUSH1 0x0 REVERT JUMPDEST POP MOD SWAP1 JUMP JUMPDEST PUSH1 0x1F DUP3 GT ISZERO PUSH2 0x6E4 JUMPI PUSH1 0x0 DUP2 DUP2 MSTORE PUSH1 0x20 DUP2 KECCAK256 PUSH1 0x1F DUP6 ADD PUSH1 0x5 SHR DUP2 ADD PUSH1 0x20 DUP7 LT ISZERO PUSH2 0x6C1 JUMPI POP DUP1 JUMPDEST PUSH1 0x1F DUP6 ADD PUSH1 0x5 SHR DUP3 ADD SWAP2 POP JUMPDEST DUP2 DUP2 LT ISZERO PUSH2 0x6E0 JUMPI DUP3 DUP2 SSTORE PUSH1 0x1 ADD PUSH2 0x6CD JUMP JUMPDEST POP POP POP JUMPDEST POP POP POP JUMP JUMPDEST DUP2 MLOAD PUSH8 0xFFFFFFFFFFFFFFFF DUP2 GT ISZERO PUSH2 0x703 JUMPI PUSH2 0x703 PUSH2 0x46D JUMP JUMPDEST PUSH2 0x717 DUP2 PUSH2 0x711 DUP5 SLOAD PUSH2 0x538 JUMP JUMPDEST DUP5 PUSH2 0x69A JUMP JUMPDEST PUSH1 0x20 DUP1 PUSH1 0x1F DUP4 GT PUSH1 0x1 DUP2 EQ PUSH2 0x74C JUMPI PUSH1 0x0 DUP5 ISZERO PUSH2 0x734 JUMPI POP DUP6 DUP4 ADD MLOAD JUMPDEST PUSH1 0x0 NOT PUSH1 0x3 DUP7 SWAP1 SHL SHR NOT AND PUSH1 0x1 DUP6 SWAP1 SHL OR DUP6 SSTORE PUSH2 0x6E0 JUMP JUMPDEST PUSH1 0x0 DUP6 DUP2 MSTORE PUSH1 0x20 DUP2 KECCAK256 PUSH1 0x1F NOT DUP7 AND SWAP2 JUMPDEST DUP3 DUP2 LT ISZERO PUSH2 0x77B JUMPI DUP9 DUP7 ADD MLOAD DUP3 SSTORE SWAP5 DUP5 ADD SWAP5 PUSH1 0x1 SWAP1 SWAP2 ADD SWAP1 DUP5 ADD PUSH2 0x75C JUMP JUMPDEST POP DUP6 DUP3 LT ISZERO PUSH2 0x799 JUMPI DUP8 DUP6 ADD MLOAD PUSH1 0x0 NOT PUSH1 0x3 DUP9 SWAP1 SHL PUSH1 0xF8 AND SHR NOT AND DUP2 SSTORE JUMPDEST POP POP POP POP POP PUSH1 0x1 SWAP1 DUP2 SHL ADD SWAP1 SSTORE POP JUMP INVALID LOG2 PUSH5 0x6970667358 0x22 SLT KECCAK256 LOG3 0xFC INVALID 0xBE SELFDESTRUCT 0xB6 PUSH20 0xBABD8C3A86BCE6255C218E1C7895D61108C9402C DUP15 SWAP15 ADD 0xFC SWAP4 PUSH5 0x736F6C6343 STOP ADDMOD LT STOP CALLER ",
  "sha1": "a080a3c0ac6c169a8fc1ee12fe53ed1582059521",
  "source": "// SPDX-License-Identifier: MIT\n\npragma solidity >=0.6.0 <0.9.0;\n\ncontract RSACertification {\n    struct Certificate {\n        address certificate_owner;\n        string name;\n        uint256 public_key;\n        //uint256 signature;\n        uint256 timestamp;\n    }\n\n    mapping(address => Certificate) public nameToCertificate;\n\n    // create a certificate\n    function createCertificate(string memory _name, uint256 _public_key)\n        public\n    {\n        nameToCertificate[msg.sender] = Certificate(\n            msg.sender,\n            _name,\n            _public_key,\n            block.timestamp\n        );\n    }\n\n    // signature using RSA\n    function signWithRSA(\n        uint256 public_key,\n        uint256 n,\n        uint256 d\n    ) private view returns (uint256) {\n        uint256 signature = public_key**d % n;\n        return signature;\n    }\n\n    // verification using RSA\n    function verifyWithRSA(\n        uint256 public_key,\n        uint256 signature,\n        uint256 e,\n        uint256 n\n    ) public view returns (bool) {\n        uint256 result = signature**e % n;\n        return result == public_key;\n    }\n\n    function getName() public view returns (string memory) {\n        return nameToCertificate[msg.sender].name;\n    }\n\n    function getSignedPublicKey(uint256 n, uint256 d)\n        public\n        view\n        returns (uint256)\n    {\n        return signWithRSA(nameToCertificate[msg.sender].public_key, n, d);\n    }\n\n    function getTimestamp() public view returns (uint256) {\n        return nameToCertificate[msg.sender].timestamp;\n    }\n}\n",
  "sourcePath": "contracts/RSACertification.sol",
  "type": "contract"
}